:020000040800F2
:10000000A026002061700008E1690008E36900088B
:10001000E5690008E7690008E969000800000000D8
:10002000000000000000000000000000EB69000874
:10003000ED69000800000000EF690008F1690008A0
:100040008170000885700008897000088D700008B4
:100050009170000895700008997000089D70000864
:10006000A1700008A5700008A9700008AD70000814
:10007000B1700008B5700008B9700008BD700008C4
:10008000C1700008C5700008C9700008CD70000874
:10009000D1700008D5700008D9700008DD70000824
:1000A000F5690008E1700008E5700008E9700008D3
:1000B000ED700008456A0008836A0008F1700008C6
:1000C000F5700008F9700008FD7000080171000863
:1000D0000571000809710008896A00080D7100089F
:1000E0001171000815710008197100081D710008D0
:1000F0002171000825710008297100082D71000880
:100100003171000835710008397100083D7100082F
:1001100041710008457100088F6A0008956A00085F
:10012000497100084D7100085171000855710008AF
:10013000597100085D71000861710008657100085F
:10014000697100086D71000871710008757100080F
:10015000797100087D7100088171000885710008BF
:10016000897100088D71000891710008957100086F
:10017000997100089D710008A1710008000000003D
:10018000A5710008A97100082DE9F04FAFB09146A4
:1001900004910DF14201389A01914A7000210DF14C
:1001A000910283461E460D912E920AE019F8011B1A
:1001B0000498D8470028049000F068850D98401CEA
:1001C0000D9099F8000050B12528EFD100210022B0
:1001D0000791089209910A920B910C9204E00D98F4
:1001E00000F056BD41F0010119F8010F2028F9D0A7
:1001F00023280CD02B2804D02D2805D0302809D056
:100200000BE041F00201EFE741F00401ECE741F0BF
:100210000801E9E741F01001E6E72A280DD132682C
:1002200052F8040B326000280F9003D540420F9023
:1002300041F0040109F1010914E00F92DFF8A83B35
:100240000AE00F98984205DA00EB800402EB4402C2
:10025000303A0F9209F1010999F80020A2F130001B
:100260000A28EED399F800002E2803D04FF0FF3271
:100270000E9227E019F8010F2A2807D1306850F8AC
:10028000042B30600E9209F101091BE02D280CBFF0
:1002900009F10109002000220E92DFF84C4B0BE01F
:1002A00040B90E9AA24205DA02EB820503EB450340
:1002B000303B0E9309F1010999F80030A3F13002A7
:1002C0000A2AEDD3ADF840100FF6803099F80010EF
:1002D00000F0F6FD08B119F8010B8DF842009DF809
:1002E0004200682805D199F8000068280CD16221E5
:1002F00006E06C2804BF99F800006C2804D1712135
:100300008DF8421009F1010912A8069019F801AB05
:10031000BAF1250126D02039022940F2A9811339EA
:1003200000F0FB830B3900F08184491E00F0378414
:10033000491E022940F29C81091F00F03084491FA8
:1003400000F01C81491E00F0E883491E00F0C580C2
:10035000C91E0DD0891E00F0E083C91E00F0DD83A8
:1003600000F06DBC25228DF84820012100F072BC00
:10037000306850F8044B3060002C059440F09B80AE
:1003800001994878002800F092804FF0FF340FF672
:10039000F42000F0A1FD201A40F0788400F05BBC4E
:1003A00001236A4602A9584600F038FD002840F0B3
:1003B0006D846D1EF4D1079D12AF65B117F8012B46
:1003C00002A9584600F01AFD002801D46D1EF5D18F
:1003D000002840F05B840A9D3020002D8DF800003D
:1003E0000ADD01236A4602A9584600F017FD0028DD
:1003F00040F04C846D1EF4D1059F089D65B117F83F
:10040000012B02A9584600F0F9FC002801D46D1E0A
:10041000F5D1002840F03A840B9D3020002D8DF856
:1004200000000ADD01236A4602A9584600F0F6FCE6
:10043000002840F02B846D1EF4D105980899099D81
:10044000471865B117F8012B02A9584600F0D6FCF1
:10045000002801D46D1EF5D1002840F017840C9DB2
:100460003020002D8DF800000ADD01236A4602A924
:10047000584600F0D3FC002840F008846D1EF4D1EB
:100480009DF8400041077FF59CAE2020002C8DF8A0
:1004900000007FF796AE01236A4602A9584600F095
:1004A000BDFC002840F0F283641EF4D189E60FF60B
:1004B000F0100590CFE30E9D002D04D5204600F0EE
:1004C0002BFD044607E02A46204600F02FFD0028B9
:1004D00014BF041B2C460894BDE3316851F8040B8B
:1004E000316020F00004002121F0FF3512ABCDE98E
:1004F00002450593DDE9022306993C2413B90AB9A4
:100500000E98A8B102F00F053035641EEFB23A2FF5
:1005100008DA120942EA03721B090D5508BF002AC6
:1005200002D105E02735F4E705980D19A842E9D373
:1005300008190590C4F13C020E980892824209DA2B
:10054000BDF84010821A4FF6EF7001400A92ADF8E4
:10055000401080E3002840F17E839DF8400000F0C9
:100560001400102840F077830F9B07990A985B1AB4
:100570001B1A9A1A002A40F36E83CCE2019948783C
:1005800020B14FF0FF340FF6CC0002E79DF8420097
:10059000622853D0682815D06A2836D06C2806D037
:1005A00071283CD0742825D07A2818D053E03168BF
:1005B00051F8040B3160002857D14FF0FF340FF68B
:1005C000AC00E6E6316851F8040B316020B94FF019
:1005D000FF340FF69800DCE60D9901803BE33168AB
:1005E00051F8040B316000283FD14FF0FF340FF673
:1005F0007C00CEE6316851F8040B3160002834D11C
:100600004FF0FF340FF66400C3E6316851F8040B75
:10061000316070B94FF0FF340FF65000B9E6316821
:1006200051F8040B316020B94FF0FF340FF63C0055
:10063000AFE60D9AD317C0E900230CE3316851F8F7
:10064000040B316020B94FF0FF340FF62000A0E614
:100650000D990170FFE2316851F8040B316020B947
:100660004FF0FF340FF6040093E60D990160F2E2BB
:100670003368DB1D23F007033360D3E9000108333F
:100680003360CDE90201C80F02D007982D210AE09E
:10069000BDF84000810702D507982B2103E0C00771
:1006A00005D50798202112AB1954401C079012A8B9
:1006B0000799DDE9024543180E980593002824AFF9
:1006C00002D506200E9005E001BF4AF02000672801
:1006D00001210E91DDE9020148004015401C0A4647
:1006E0000DD109030BD0AAF1610203201A2A089048
:1006F00002D20FF2B0710DE00FF2AC710AE070B9E6
:1007000010030CD1AAF1610203201A2A089017D312
:100710000FF29C710322184600F034FC9BE2DDE9E5
:1007200002016A4600F03AFCCDE9020120F0000225
:1007300031F0004308BF002A05D100250024B4E0B1
:100740000FF26871E6E70099DFF8A02647F29750AC
:10075000414391FBF2F2009225F00045C2F10702FD
:10076000002A04DD2046294600F01BFB0BE0524224
:100770000020DFF87C1600F014FB02460B462046F2
:10078000294600F043FC04464AF02000662806BFD4
:10079000009800F10A084FF006080E988044B8F15E
:1007A000140FC8BF4FF0140830208DF890000D468C
:1007B0000DF1910000E03846B8F1000F37DD074633
:1007C0002046294600F046FD01460A4607F1080387
:1007D00004200A27B2FBF7F707EB870EA2EB4E02C5
:1007E000303203F8012C0A22B7FBF2F202EB820E40
:1007F000A7EB4E073037401E03F8027DE9D1A8F180
:100800000808B8F1000F03F10807D4DD084600F02E
:1008100033FD02460B462046294600F0F9FD002232
:10082000DFF8D03500F066FE04460D46C8E72E9985
:10083000401A0DF1910704E00099491E401E0091F5
:100840007F1C39783029F7D04AF02001662902D17F
:10085000009D6D1C03E065290CBF012500250E9944
:100860006D18A842B8BF451E002D1DD4854204DA7C
:10087000785D3428C8BF392000DC302029467A1E34
:10088000531800E06D1E13F80149491E8442F9D047
:10089000392802D1785C401C7854002904D500988E
:1008A000401C17466D1C0090009C28B2DDF8388073
:1008B000002802DC01250FF2FC574AF020006628D0
:1008C00008BF641C16D067285BD120B210F1040F5A
:1008D00043DB404541DA9DF84000641C010703D426
:1008E00028B24045D8BF804620B2B8EB000848BFC8
:1008F0004FF000080FFA84FABAF1000F00F3AA8053
:100900000898411C0891302205990A54B8F1000F4B
:1009100003DC9DF84000010705D50898411C0891AB
:100920002E2205990A5418EB0A0FB8BFC8F100042B
:1009300024B260420B90A0442AB29045B8BF45460D
:10094000059B08982DB209952A463946184400F0AF
:1009500019FBA8EB05000C90C8E028B2404504DA6A
:100960009DF840100A0758BF8046B8F1010848BFFB
:100970004FF00008BAF1670F0CBF4FF0650A4FF057
:10098000450A0898411C0891B8F1000F059917F81D
:10099000012B0A5403DC9DF8400001071BD5089881
:1009A000411C08912E2205990A54B8F1000F12DD5E
:1009B0006D1E28B280450598089BB8BF45462AB2EF
:1009C0003946184400F0DEFA08982DB2281808902D
:1009D000A8EB05000B9005980899084422B2002A5C
:1009E00080F800A003D42B224270811C04E02D214A
:1009F00041701446811C6442002021AA0AE023466B
:100A00000A2493FBF4F404EB8405A3EB450302F8FA
:100A1000013B401C24B2002CF1DC012806DC4AF02A
:100A20002002652A04BF302201F8012B002821AAE8
:100A300008D1302001F8010B06E0401E135C303372
:100A400001F8013B0028F8DC059A08981044091ABF
:100A500009914BE028B221B288421DDA0598089B23
:100A60002AB23946184400F08DFA08992DB2691857
:100A70000891AAEB0500B8F1000F0B9003DC9DF87C
:100A80004000020705D5059A2E2050540999491CAB
:100A90000991CDF8308029E00598089B22B23946AB
:100AA000184400F06FFA08982D1B5044B8F1000F5D
:100AB000089003DC9DF840100A0704D5411C0891FA
:100AC0002E2205990A5428B280450598089BB8BF84
:100AD00045462AB207EB0A01184400F053FA089879
:100AE0002DB228180890A8EB05000B909DF8400047
:100AF00000F01400102840F0AE80079A08990B9877
:100B00008A18099982180C988A1882180F988242BC
:100B100080F2A180821A0A929DE09DF8420062282C
:100B200008D068280CD06A2810D06C2818D07128FA
:100B30000CD015E0316851F8040B3160C0B213E0FD
:100B4000316851F8040B316080B20DE03268D21D7B
:100B500022F007023260D2E900010832326004E07C
:100B6000316851F8040B31600021CDE902019DF894
:100B70004000010751D5DDE90223002B08BF002A00
:100B80004BD04AF02000782847D1079812A930228C
:100B90000A54401C431C079301F800A03DE09DF857
:100BA0004200622808D068280CD06A2810D06C282F
:100BB00018D071280CD015E0316851F8040B316061
:100BC00040B213E0316851F8040B316000B20DE01F
:100BD0003268D21D22F007023260D2E900010832E9
:100BE000326004E0316851F8040B3160C117CDE97F
:100BF0000201002902D507982D210AE0BDF8400026
:100C0000810702D507982B2103E0C00705D5079877
:100C1000202112AA1154401C079012A807990144E0
:100C2000059102A8514600F036F814E00120079023
:100C3000306850F8041B30608DF848100BE0252117
:100C40000122BAF1000F8DF84810079203D08DF8F9
:100C500049A0022107910F9A07980A990C9C121A31
:100C60000898521A0B99121A0998521A121A9DF8DA
:100C70004000141B41073FF59EAB2020002C8DF84F
:100C800000007FF798AB2546FFF78ABB4FF0FF3097
:100C90002FB0BDE8F08F2DE9FC4304466F2925698C
:100CA00008BF082605D041F02000782814BF0A2686
:100CB00010263C27D4E90023642918BF69299046EF
:100CC000994605D1002B03D5D8F1000869EB4909F5
:100CD000B9F1000F08BFB8F1000F0CD1206B50B96B
:100CE000082E3AD194F83800010736D530203B273A
:100CF00085F83B0031E08DF8001040464946324609
:100D0000F31700F0CDFC3032D0B27F1E3A280197A5
:100D10000EDAEA55404649463246F31700F0C0FC69
:100D200080465FEA010908BFB8F1000F05D108E06D
:100D30009DF800001218513AEBE7E068E919884283
:100D4000DBD3082E09D194F83800010705D5E85DFA
:100D5000302802D07F1E3020E855C7F13C02A26146
:100D6000E919E160206B824208DA821A22624FF6AA
:100D7000EF70218F01402187BDE8F38300280ED555
:100D800094F8380000F01400102808D1636B6169F2
:100D9000206A5B1A1B1A9A1A002AC8BF2262BDE891
:100DA000F3832DE9D04306460F4614464FF0000862
:100DB000DFF8449012E0E00707D542464B46304644
:100DC000394600F097FB06460F46404649464246E4
:100DD0004B4600F08FFB641080468946002CEAD118
:100DE00030463946BDE8D083CBCCCC0CA086010080
:100DF0000000F03F84D797410000244010B503461F
:100E00000C461146A0689847A06020B1E06A401CDB
:100E1000E062002010BD4FF0FF3010BDF8B5054670
:100E20000E4617461C4600205CB117F8011BB0683F
:100E3000A847B06030B1F06A401CF0620020641E28
:100E4000F3D1F2BD4FF0FF30F2BD0000686A6C7460
:100E50007A4C00007072696E74665F733A20256E7A
:100E600020646973616C6C6F776564007072696E81
:100E700074663A2062616420256E20617267756D28
:100E8000656E74007072696E74665F733A20626199
:100E90006420257320617267756D656E74000000B3
:100EA000000000006E616E004E414E00696E6600EB
:100EB000494E460030000268531C036011707047B1
:100EC000C9B202788A421AB11CBF10F8012FF9E7A3
:100ED00018BF00207047000080B500B906A0054982
:100EE0000B681BB122220021984701E000F05BFC57
:100EF000222002BD88060020636F6E7374726169E0
:100F00006E742068616E646C65723A206261642060
:100F10006D6573736167650000F1010310F8011BD3
:100F200011B110F8011BFBE7C01A7047C9B2830763
:100F300006D0521E22D310F8013B9942F7D11FE090
:100F4000083A13D302F1040241EA012141EA0141C6
:100F500050F8043B121F21BF4B40A3F1013C2CEA87
:100F6000030C1CF0803FF3D0C9B2001F083210F808
:100F7000013B521E28BF91EA030FF8D818BF012089
:100F8000401E70474AB1000011F8013B521E00F8A4
:100F9000013B1CBF11F8013BF8E7704710B5144640
:100FA00000F002F8226010BDC1F30A5343B14A00B9
:100FB00012F5001F28D2A3F2FE32A1EB02517047B6
:100FC00050EA410C20D001F0004C31EA0C01B1FA9A
:100FD00081F204BFB0FA80F3D2180B3AB2F12003C9
:100FE0002CBF00FA03F1914041EA0C013EBFC2F16F
:100FF000200C20FA0CF319439040524240F2FD338A
:10100000D21A01EB0351704700227047F0B540F24D
:10101000FF7581EA030C0CF0004C15EA11541DBF5A
:1010200015EA1357AC42AF42E5E0BC41C1F31301EE
:10103000C3F31303801A994143F4801304D2641E4E
:101040000018494180185941C90241EA5051B1FB89
:10105000F3F603FB1611A2FB0675D7EBC020A941DE
:1010600002D2761E80185941C90241EA5051B1FBA3
:10107000F3FE03FB1E11A2FB0E75D7EBC020A941A6
:1010800003D2AEF1010E80185941890241EA905114
:10109000760546EA8E2EB1FBF3F603FB1611A2FB92
:1010A0000675D7EB8020A94102D2761E80185941DF
:1010B000C90241EA50514EEA060EB1FBF3F603FBBA
:1010C0001611A2FB0675D7EBC020A94102D2761EED
:1010D00080185941C90241EA5051B1FBF3F703FBB3
:1010E0001711A2FB0735D3EBC020A94167F1000718
:1010F0000CBF004247F0010766F3D5274FEA1E31C7
:10110000B80814F5806412DDBD0775F1004250EB9C
:101110000E5051EB045111F5801F5CBF41EA0C01E8
:10112000F0BD4CF07F6141F0E0410020F0BDBD0713
:101130006D0840EA0E5041F48011D4F10104B4F17D
:1011400020060ADAC4F120060200E04001FA06F3A4
:10115000E1401843B24015430EE0342C13DCC6F1D5
:10116000200445EA40056D0820FA06F2154321FAED
:1011700006F0A1400D43002175F1004250F100003E
:1011800051EB0C01F0BD00205FEA0C01F0BDCFB9BE
:1011900092185B41B3FA83F704BFB2FA82F6BF1923
:1011A0000B3FB7F120062FBF02FA06F3BB40C7F191
:1011B000200622FA06F638BF3343BA401CB1E419C0
:1011C000641E33E77F4231F00041B1FA81F404BF7D
:1011D000B0FA80F6A4190B3CB4F120062FBF00FA38
:1011E00006F1A140C4F1200620FA06F638BF3143CB
:1011F000A0403C1B1AE7AC421ABF05EA1357AF42A6
:1012000012E050EA41061CBF52EA4306BFE750EA2B
:101210004107304661461CBF41EA0551F0BD52EA24
:10122000430C08BFC143F0BD00204FF4001616EB7D
:10123000410F98BF16EB430F08BF16EB410F24BFB9
:10124000C14305E016EB430F0CBF61464CEA055164
:10125000F0BD0000400D40F21E4C40EAC120BCEB46
:10126000115C40F0004003D48CF30701C840704784
:101270006FEAE1707047000050B1B0FA80F1884029
:10128000C91CC1F58461090501EBD02140057047F7
:101290000146704770B491EA030F4FF0004540F1EA
:1012A000BF806B40841A71EB030604D26E40001BB2
:1012B000B141121973414FF4001C1CEB410F34BFB4
:1012C0007CEB430683E00C0DA4EB1356362E00F3A3
:1012D0007C80012E45EAC32341DC43EA525312BF0E
:1012E000D20292025B08240545EAC12141EA50512D
:1012F000D2EBC020994125D407D1B0FA80F610FA7C
:1013000006F162D00020203608E0B1FA81F6B14043
:10131000C6F1200220FA02F21143B0404FEAF47401
:10132000B4EB465434F001064FEA74040AD8D6F5FB
:101330000016760D04F00044F04061FA06F25040C9
:10134000F1404840C00A40EA415021F0004128BF26
:101350005FEA500550F1000044EBD12135E0DB0A93
:1013600045EAC121C90AB6F120050EDD42EA024272
:10137000120CC5F1200603FA06F6EB4042EA060518
:101380006D42984161F100010DE062FA06F5F2400C
:10139000554063FA06FC82EA0C02F3405A406D4263
:1013A000904161EB030111F4801F05D1641E6205B9
:1013B00002D06D004041494121F48011430875F18C
:1013C000004350F1000041EB045170BC70471CEB2E
:1013D000410F15D223F0004352EA43060BD04FEAE7
:1013E0004C0CBCEB410F04D80C0D661E342EB7DD3F
:1013F000EBE7801A994150EA410608BF0021E4E773
:1014000008BF1CEB430F28BF6FF00001DDE70000B1
:1014100070B491EA030F4FF000457FF543AF6B4086
:10142000841A71EB030603D2001BB14112197341F8
:101430004FF4001C1CEB410F34BF7CEB430442E033
:101440000C0DA4EB1356352E4FDC45EAC323DB0A03
:1014500045EAC121C912B6F120050DDD63FA05F692
:10146000EB4086EA0305124218BF45F00105C0189B
:1014700051F100010CD213E062FA06F5F24055403A
:10148000F3415A40B340F3405A408018594107D3C2
:1014900049085FEA30005FEA350528BF45F00105DD
:1014A00001F58011420875F1004250F1000041EB56
:1014B00004514E0016F5001F70BC38BF7047002065
:1014C000090D090570471CEB410F10D252EA430683
:1014D0000BD0BCEB410F05D80C0DAB43661E342E70
:1014E000B6DD02E0AB438018594170BC704770BC58
:1014F0007047000030B540F2FF7C1CEA11541DBF5C
:101500001CEA1355644565453FE0641981EA030C04
:101510006FF35F530CF0004C43F48013C90241F0A9
:10152000004141EA505EC5021100A5FB02020028FD
:101530004FF00000EEFB01204FF00001E3FB05211E
:1015400018BF42F00102401800214941E3FB0E019F
:10155000A4F580640D0302D292184041494154F130
:10156000010470DD450872F1004250F1000051EBBA
:101570000451A1F5801102D441EA0C0130BD40F2C2
:10158000FF7E4CEA0E51002030BD0CEA1355644535
:1015900018BF654581EA030C0CF0004C41D050EABD
:1015A000410E1CBF52EA430E02E06146002030BDEE
:1015B00024422C441BD15FEA050EF6D0090302BF7A
:1015C00001460020AEF1140EB1FA81F5AEEB050430
:1015D00001FA05FE0C35C5F1200100FA05F5C840F9
:1015E0004EEA000E6FF35F5343F480139CE733F031
:1015F0000043B3FA83F504BFB2FA82FE75440B3D93
:10160000641BB5F1200E2FBF02FA0EF3AB40C5F1FB
:10161000200E22FA0EFE38BF43EA0E03AA40641CD5
:101620007CE750EA410E14BF52EA430E6FF000010E
:101630004FF4001515EB430F8EBF194615EB410F04
:101640009DE7B4D830BDD4F10104B4F120050FDA20
:10165000C4F12005520828BF42F0010210FA05FE2D
:1016600001FA05F57244E2BFE0402843E1400FE093
:10167000352C9ADCC5F1200452EA400220FA05F22A
:1016800018BF42F0010231FA05F0A1400A430021DF
:1016900072F1004250F1000051EB0C0130BD00002E
:1016A000D3BBD9B1B2F5803F5BD2022A1ED98C469A
:1016B000B1FBF2F102FB11C31B0443EA1043B3FB7D
:1016C000F2FC02FB1C3380B240EA0343B3FBF2F0AE
:1016D00002FB103240EA0C4000237047022A05D971
:1016E0008446B0FBF2F002FB10C270474AB105D14C
:1016F00000F0010249085FEA300070470022002331
:10170000704700F053B80B00020000210020704722
:10171000F7D3002200237047904271EB030CF2D301
:1017200070B5B1FA81F4B3FA83F52C1BA340C4F170
:10173000200532FA05F63343A2405FF00046E6404A
:1017400002E05B085FEA3202841A71EB030524BFF2
:10175000204629467641F4D302000B0030000021D8
:1017600070BD70B5B1FA81F4B2FA82F5C4F120040B
:101770006419B4F12006DAD3B2405FF00044F440BB
:10178000002502E052085FEA3303C61A71EB020E2D
:1017900024BF3046714664416D41F3D302000B0013
:1017A0002000290070BD012000F002B87047000041
:1017B00080B5AFF30080024A11001820ABBEFBE7F2
:1017C0002600020038B5040001D1012032BD00F02E
:1017D000DDF818B900F09AFA00F0AEFC39E090F8A4
:1017E0003D10012901D001207047022180F83D10F1
:1017F0000168CA6842F00102CA600168DFF870211E
:10180000914218BFB1F1804F17D0DFF868219142A3
:101810001CBFDFF8643199420FD0DFF8602191429C
:101820001CBFDFF85C31994207D0DFF858219142A4
:101830001CBFDFF85431994205D1896801F00701D6
:10184000062904D001680A6842F001020A600020FB
:10185000704702206870211D206800F05BFA0120AB
:10186000A872A870E87028716871A871E871287270
:1018700068726870002032BD38B5040001D10120C3
:1018800032BD00F083F818B900F040FA00F03CFDDA
:10189000DFE710B5044604F13E0009B9027807E01D
:1018A000042908BF427803D008290CBF8278C27887
:1018B000012A01D0012010BD11B9022202700AE0F4
:1018C000042902D10222427005E0082907BF022242
:1018D00082700223C3702068012200F060FB00F0D8
:1018E0002BF818BF884200F02EF818BFB0F1804FD7
:1018F00012D000F01DF81CBFDFF87C3098420BD0EE
:1019000000F012F818BF884206D000F029F81CBF7A
:10191000DFF87420904203D100F01DF802D0206857
:1019200000F021F8002010BDDFF8502090427047F1
:10193000DFF84020904270472068DFF83420DFF85D
:1019400040109042704703D1436C43F4004343641A
:10195000206890427047806800F0070006287047B2
:10196000084988427047016841F0010101607047F1
:10197000000001400004004000080040000C00404E
:1019800000040140004001400018004004F13C0503
:1019900068787047F8B504000E4601D10120F2BD09
:1019A000FFF7F4FF18B900F0B1F900F08EFB022048
:1019B00068702168DFF88C028A6802408A60211D05
:1019C000206800F0A7F92268DFF87C12936890691C
:1019D000176A0140B0680843B16940EA0120DFF8A6
:1019E0006C120140F0680843F16940EA0121306956
:1019F00041EA0010316A40EA013C7068716927F0E1
:101A0000AA0707433068034347EA01179360216838
:101A1000C1F818C0012120680762A972A970E97095
:101A2000A971E97169700020F2BD000010B504468B
:101A3000206801698A0715D5C1688A0712D56FF039
:101A40000201016101222277806910F0030F204614
:101A500002D000F05AFC03E000F058FC00F087F8D8
:101A600000202077206801694A0715D5C1684A0718
:101A700012D56FF00401016102222277806910F40F
:101A8000407F204602D000F040FC03E000F03EFC26
:101A900000F06DF800202077206801690A0715D54D
:101AA000C1680A0712D56FF008010161042222778C
:101AB000C06910F0030F204602D000F026FC03E0BE
:101AC00000F024FC00F053F8002020772068016922
:101AD000CA0615D5C168CA0612D56FF0100101619A
:101AE00008222277C06910F4407F204602D000F01F
:101AF0000CFC03E000F00AFC00F039F8002020772D
:101B000020680169CA0708D5C168CA0705D56FF002
:101B100001010161204600F0FAFB206801690A0614
:101B200008D5C1680A0605D56FF08001016120461D
:101B300000F0EEFB206801694A0608D5C1684A0634
:101B400005D56FF040010161204600F0E2FB2068FE
:101B500001698A060AD5C1688A0607D56FF0200197
:101B600001612046BDE8104000F0D4BB10BD204606
:101B700000F0D1BB002084F83C002846704770B5C7
:101B800000F058F801D1022070BD012084F83C001B
:101B900032B1042A15D0082A25D00C2A34D045E0C9
:101BA000206800F002F92168886940F00800886127
:101BB000886920F0040088618A69306902438A617B
:101BC00035E0206800F01DF92068816941F400616A
:101BD0008161816921F4806181618169326941EAB1
:101BE0000221816123E0206800F03BF92168C86987
:101BF00040F00800C861C86920F00400C861CA69E3
:101C000030690243CA6112E0206800F059F9206887
:101C1000C16941F40061C161C16921F48061C161A0
:101C2000C169326941EA0221C16100E00125FFF783
:101C3000A1FF70BD0446002594F83C0001280E4623
:101C400070470000F8BFFFFFFCFCFFFF0303FFFF2E
:101C500070B5064606F13C0500242878012801D11C
:101C6000022070BD0120287002226A70DFF89802FD
:101C700032689368034093600868020018BF102818
:101C800030D0202818BF30282CD0402826D050280B
:101C900019D060281BD0702806D0B0F5805F27D0FF
:101CA000B0F5005F07D022E000F02BF830688168C3
:101CB00041F0770105E000F024F83068816841F4D4
:101CC0008041816014E000F018F850210BE0CA68F0
:101CD0004968306800F03FF9602104E000F00DF839
:101CE000402100E00146306800F047F900E001249F
:101CF0000120687000F00AF870BDCA684968306851
:101D00001AE1CB684A68896830683EE10021297091
:101D100020467047F0B57D4C05687D4B7D4E7E4F6B
:101D2000DFF8F8C1A04218BFB0F1804F07D060457E
:101D300018BFB84203D0B04218BF98420DD14A68CC
:101D400025F070051543A04218BFB0F1804F17D0A1
:101D500060451CBFB842B04212D098421CBF704AC6
:101D600090420DD06F4EB0421CBF6F4A904207D0D8
:101D70006E4EB0421FBF6E4A90426E4EB04203D1CB
:101D8000CA6825F4407515434A6925F08005154356
:101D90000560A0428D68C5620A68826212BF9842DF
:101DA0000969016301224261F0BDF0B5026A574F33
:101DB000520852000262066A446885690B688A68A4
:101DC00025F0730526F002061D431643504BB8421A
:101DD00018BF984207D1CA6826F008061643B842D1
:101DE00026F0040601D0984205D14B698A6924F493
:101DF00040741C4314434460856149684163066232
:101E0000F0BDF0B5026A414E22F010020262B0420B
:101E1000056A436884690A6824F4E64444EA0224B3
:101E20008A6825F0200545EA0215394A18BF904214
:101E300008D1CF6825F0800545EA0715B04225F0A6
:101E4000400501D0904206D14E698A6923F440636F
:101E5000164343EA860343608461496881630562EF
:101E6000F0BDF0B5026A22F480720262056A43682E
:101E7000C4698E680A6825F4007524F0730445EA85
:101E800006251443214E224AB04218BF904208D181
:101E9000CF6825F4006545EA0725B04225F4806542
:101EA00001D0904206D14E698A6923F4405316430B
:101EB00043EA06134360C4614968C1630562F0BD2B
:101EC00070B5026A114E22F480520262B042046A76
:101ED0004268C3690D6823F4E64343EA05238D682D
:101EE00024F4005444EA05341CBF094DA84204D12F
:101EF0004D6922F4804242EA85124260C36149681A
:101F00000164046270BD00008800FFFF0000014012
:101F100000040140000C00400008004000040040A4
:101F200000400140004401400048014000180040CA
:101F3000001C00400020004010B5036A046A6408D9
:101F40006400046223F00A03846924F0F00444EA84
:101F5000021484612EE010B5036A23F010030362BB
:101F60008369046A23F4704343EA023324F0A00433
:101F7000836144EA0114046210BD826822F0700299
:101F8000114341F007018160704710B5846824F463
:101F90007F442143114341EA0321816010BD10B504
:101FA00001F01F01036A01248C40A343036202FA7B
:101FB00001F1036A1943016210BD000081B00020E5
:101FC00000900022DFF80003416841F48041416045
:101FD000416801F48041009100990092036843F048
:101FE00080530360006800F080500090009801B0BA
:101FF000704710B586B000F099F82268DFF8CC324F
:10200000DFF8CC02DFF8CC129A420ED10022009207
:102010004B6943F480734B6100234A6902F4807278
:102020000092009A0093012211E0DFF8AC329A424C
:102030001DD1002200924B6943F400734B610023D1
:102040004A6902F400720092009A009302220C681E
:1020500044F001040C60096801F00101009100994D
:102060000192032300220293039200F02AF906B0A2
:1020700010BD10B586B000F059F82168974881422C
:1020800021D10022934C00921222206840F00200DD
:102090002060216801F002010091C0210098904861
:1020A00001910292002103910322042100F007F91B
:1020B00000200090216941F400112161206900F4A1
:1020C00000100090009806B010BD10B586B000F06A
:1020D0002DF821688348814226D100F0B9F8416982
:1020E00041F001014161416901F001010091009954
:1020F00000924FF42061036843F010030360022252
:10210000006800F01000009000987748019102925A
:102110000121039100F0D3F800220021182000F0E3
:1021200015F9182000F02FF906B010BD044614224E
:10213000002101A800F052B980B501686B4A6248DD
:1021400091420ED100F05FF842F0020200F057F821
:1021500000F00200009000981D2000F0F7F81D200C
:1021600048E0634A91420ED100F04DF842F004027B
:1021700000F045F800F00400009000981E2000F0E8
:10218000E5F81E2036E05B4A91420ED100F03BF8A4
:1021900042F0100200F033F800F0100000900098B8
:1021A000362000F0D3F8362024E0534A91420ED175
:1021B00000F029F842F0200200F021F800F02000A1
:1021C00000900098372000F0C1F8372012E04B4A09
:1021D000914213D100210091426842F48032426062
:1021E0000022406800F4803000900098182000F031
:1021F000ADF81820BDE8024000F0C5B801BD02608E
:10220000002200687047002100910268704710B5F5
:1022100086B0FFF78BFF21683548814216D100F068
:1022200017F80222016841F0080101604FF44041B3
:10223000006800F008000090009831480191029277
:10224000012103910492059200F03BF806B010BD05
:10225000002220480092704710B586B0FFF766FF55
:1022600021682848814228D1FFF7F2FF016941F433
:1022700000310161016901F400310091009900927F
:102280000C21036843F0010303600222006800F0A0
:102290000100009000980E480191029200210391E4
:1022A00004920721059100F00CF80022002126205D
:1022B00000F04CF8262000F066F806B010BD05913D
:1022C000049201A900F094B8403802400020014077
:1022D000000002403038024000210140005400401C
:1022E00000040240000001400010024000040040D1
:1022F0000008004000100040001400400040014071
:10230000000C02400044004070477047704770471F
:1023100070477047704770470901020002D429488E
:1023200081547047284B02F00F021A4402F8041C33
:102330007047264B19684FF6FF020002114000F467
:10234000E0600843224908431860704770B51F4B8E
:102350001C68C4F302230124C3F10705052D2EBF19
:102360000F2504FA05F56D1E1E1D072E34BF002330
:10237000DB1E2940994004FA03F3BDE870405B1E60
:102380001A401143C8E7010007D4012200F01F01E1
:10239000104B8A40400943F82020704710B5401E7A
:1023A000B0F1807F01D3012010BD0B4C60600F2184
:1023B0004FF0FF30FFF7B0FF0021A1600720206041
:1023C000002010BD00E400E018ED00E00CED00E09E
:1023D0000000FA0500E100E010E000E010B504465E
:1023E00010460A460146204600F004F9204610BD7A
:1023F0002DE9F84F0D4600267349744A0F23044611
:1024000001202F68B04000EA0708804540F0CA80EC
:102410004FEA460C032707FA0CF76FEA070E6F68BE
:1024200007F00309B9F1010F1CBF07F00307022FE2
:1024300012D1A768D5F80C900EEA070709FA0CF933
:1024400049EA0707A760676827EA00006F68C7F3D3
:102450000017B74038436060B0002F7907F00307DA
:10246000032F21D0E768D5F808900EEA070709FA8C
:102470000CF949EA0707E7602F7907F00307022FF5
:1024800012D1F70804EB870700F01C09D7F820A049
:1024900003FA09FB2AEA0B0AD5F810B00BFA09F97E
:1024A00049EA0A09C7F8209027680EEA070E2F7933
:1024B00007F0030707FA0CF747EA0E0727606F6873
:1024C00017F4403F6ED0002700974FEA960C17682C
:1024D00047F48047176000F00C00176807F4804746
:1024E000009703FA00FE009F394F57F82C7027EA37
:1024F0000E0E384FBC4208BF002722D0364FBC42D8
:1025000008BF01271DD0354FBC4208BF022718D095
:10251000334FBC4208BF032713D0324FBC4208BF21
:1025200004270ED0304FBC4208BF052709D02F4FDB
:10253000BC4208BF062704D02D4FBC420CBF072762
:10254000082707FA00F0224F40EA0E0047F82C0057
:102550006FEA08000F6800EA070C6F68FF0348BFC6
:1025600048EA0C0CC1F800C04F6800EA070C6F681D
:10257000BF0348BF48EA0C0CC1F804C08F6800EAEA
:10258000070C6F68FF0248BF48EA0C0CC1F808C08E
:10259000CF6800EA070C6868800248BF48EA0C0C64
:1025A000C1F80CC0761C0F2E7FF62AAFBDE8F18F64
:1025B00002B9090481617047426901EA020391434B
:1025C00041EA034181617047003C014044380240C8
:1025D00008380140000002400004024000080240A8
:1025E000000C02400010024000140240001802409B
:1025F000001C024062F30F2262F31F42401810F0E9
:10260000030308D0C91A1FD3DB0748BF00F8012D08
:1026100028BF20F8022D130030B414461546103997
:1026200028BF20E93C00FAD8490728BF20E90C0060
:1026300048BF40F8042D890028BF20F8022D48BF6C
:1026400000F8012D30BC7047C91818BF00F8012DE3
:10265000CB0728BF00F8012D7047000010B50146D8
:1026600028200968884704001CBF282100F070FB5F
:10267000204610BD70B50500DFF81C6619E0E8685B
:102680002C68C10503D4A86808B1FFF7F3FFE86818
:10269000C10503D4286908B171688847E8688105D5
:1026A00003D4286A08B17168884772682846904741
:1026B0002500E4D170BD10B50146002000228B5CDE
:1026C000A3F130040A2C02D2181830380CE0A3F120
:1026D0004104062C02D21818373805E0A3F1610432
:1026E000062C08D218185738032A38BF0001521C8C
:1026F000032AE4D910BD002010BD2DE9F14F0E468C
:1027000082B03268B168545C501C4318222C1F46BA
:1027100014D1D6F804C0002008E05C2C05D15C1C64
:10272000A41A644505D2401C5B1C5B1C1D46AC1AF8
:10273000644580F0B5801C78222CEED140F0B0804A
:102740001144691A081A3169401C88470028009012
:1027500000F0A680804640F2FF3B03E017F8010B33
:1027600008F8010BAF4280F08A8039785C29F5D1F6
:102770000224E81B002811DD797822291CBF2F29AB
:102780005C2918D062290AD066290AD06E290AD09D
:1027900072290AD074290AD075290FD07DE008204B
:1027A00006E00C2107E00A2002E00D2103E00920E9
:1027B00008F8010B61E008F8011B5EE006284FF005
:1027C000000A6ADBB81CFFF776FF8146A9F55C407A
:1027D000584562D9A9F5584159451CD8B81D0C2453
:1027E000281A062859DBB8795C2804BFF8797528BF
:1027F00053D107F10800FFF75EFFA0F55C41594592
:102800004BD8DFF8342502EA8922C0F309001043CF
:1028100000F5803001E006244846802838BF0121B9
:1028200013D3B0F5006F03D202214FF0C00A0CE0C1
:10283000B0F5803F03D203214FF0E00A05E0B0F588
:10284000881F2AD204214FF0F00A4A1E09E000F046
:10285000BF035FFA82FC43F0800308F80C30800964
:10286000521ED3B2002BF2D10129CCBF4AEA00009C
:1028700000F07F0088F800008844274472E702983F
:10288000002188F800101022C260009901613068B0
:102890002D1A6D1CB560012007E00098716988470A
:1028A00017B130683F1AB7600020BDE8FE8F000006
:1028B00010B500281CBF0168002901D1002010BDFF
:1028C00042688368934205D310BDCC5C212C07DAA3
:1028D0005B1C836083689342F7D304BF5B1E8360F5
:1028E00010BD70B504000D46164608D0FEF714FB67
:1028F000411C33462A462046BDE8704000E070BDCA
:102900002DE9F04387B005460F4614461E4668463B
:102910001C2100F021FADFF880834FF00009002D20
:10292000C8F80C90C8F810904CD0002F3AD00197FE
:1029300004A998E88C0081E88C000095CDF80890F7
:102940004046FFF78BFE07002CD0009870B102982C
:1029500060B90198052807D3009803221EA100F052
:10296000FEF908B903200290684600E00020FFF756
:102970009FFF0146384600F031F888B14EB16846F5
:10298000FFF796FF02980199884209D2009A105CDD
:1029900030B91CB10098029901442160384612E018
:1029A00000F0CCF90198029A0021824238BF11460A
:1029B00001D300B1411E0CB168182060C8F80C505A
:1029C000C8F81010002007B0BDE8F08300220021F5
:1029D00087E70023002293E7EFBBBF002DE9F04318
:1029E00091B00E001CBF3768002F00F02D81B56834
:1029F000D6F804902C1DA14580460DD304220FF279
:102A0000A821781900F0ABF930B90420C8F80C00FF
:102A1000B168091DB16011E1681D81450DD3052222
:102A20000FF28C21781900F09AF930B90120C8F81A
:102A30000C00B168491DB16007E1A14510D3042223
:102A40000FF27421781900F08AF948B90220C8F809
:102A50000C000121C8F81410B068001DB060EDE052
:102A60004D4580F0F180785D222804D13146404602
:102A7000FFF743FEE9E02D2803D0A0F130010A2939
:102A800045D20020009001AAB16874684318A3429F
:102A900018D233681944095CB1F12B070ED0BF1E60
:102AA0000CD07F1E07D0BF1E092F07D9153F05D0B8
:102AB000203F03D006E02E24145400E01154401CA3
:102AC0003F28E1D30021115401A8694600F0D2FA51
:102AD000009C01AAA24254D0C8E9060100F0D5F832
:102AE00098BF6FF0004006D900F0C9F834BF4FF02E
:102AF000004000F0C3FAC8F814000820C8F80C0021
:102B0000B26800998A1801A8121AB26096E05B2890
:102B100039D100F0A3F83AD2401CF060785D5B2810
:102B200032D16D1CB56000F0BCF800F0A4F873D28F
:102B30003268135C5D2B1FD0401EB06006F11000A0
:102B4000FFF78CFDE0B194B90446A14600F0A6F869
:102B500031464846FFF742FF90B100F0A2F800F07E
:102B60008AF80DD23268105C2C28E7D002E000F021
:102B70006FF8EBE75D2803D100F076F8202056E0EF
:102B8000002C61D05DE07B285ED100F067F85BD25D
:102B9000401CF060785D7B2856D16D1CB56000F05C
:102BA00080F800F068F837D23268135C7D2B3BD098
:102BB000401EB06006F11000FFF750FD00283FD026
:102BC0006CBB0446A14600F069F831464846FFF761
:102BD00094FD002834D000F064F8D9F81000C9F84A
:102BE00020000021C9F8101000F045F828D2326802
:102BF000135C3A2B24D100F052F831464846FFF7D7
:102C0000EDFEE8B100F04DF800F035F818D232686A
:102C1000105C2C28CED005E0401EB06014E000F01F
:102C200017F8D0E77D280BD100F01EF84020C8F837
:102C30000C00C8F80840B068401CB060012004E0F7
:102C400014B12046FFF716FD002011B0BDE8F08357
:102C5000C9F80000C0F8049081467047F06800246D
:102C6000B0F57A7FA1467047F068401EF0600CB165
:102C7000C4F804907047B0687168884270474FF09C
:102C8000FF32DFF8C03000F015BADFF8BC20DFF803
:102C9000BC3000F029BA0000E0000020B068401C01
:102CA000B060304604E600006E756C6C00000000F9
:102CB00066616C7365000000747275650000000049
:102CC0002DE9F0410F46002818BF002F2ED0846850
:102CD000FAB15CB3216A21B3384600F01FFA00B3A1
:102CE0002468F6E715F8010BD8B1761C287800F0B7
:102CF0001EFA8046307800F01AFA8045F2D0287823
:102D000000F015FA0546307800F011FA2D1A08D0B7
:102D100024685CB1266A3D0018BF002EF8D0B54289
:102D2000E4D1206A10B12046BDE8F0810020FBE725
:102D30000022C5E70122C3E700FC0F003846FFF779
:102D400099BC0000FFFFDFC10000C0FFFFFFDF41B3
:102D50000022FFF753BC0000002200F0EFB904E0AE
:102D600010F8013B6BB1491C521E52B10B7890F820
:102D700000C09C45F4D002D24FF0FF3070470120D4
:102D800070470020704700002DE9FC4D1600824678
:102D90008B461F4600F0CE802AF000023BF0004335
:102DA00008BF002A00F0C68048004015401C02D130
:102DB000090300F0BF800020002EA64951D57642BD
:102DC0005E4D7D4405F5BB75082408E0F20744BF5D
:102DD000D5E90023FEF78EFB76080835641E002E29
:102DE00018BF002CF2D104460D466A46504659469B
:102DF000FEF7D4F8DDF8008022462B46FEF706F9F0
:102E0000424600F0B5F982468B462AF000023BF0BC
:102E1000004308BF002A77D048004015401C01D16C
:102E2000090371D0002E6FD0504659466A46FEF70E
:102E3000B5F8009C884A894BFEF75CFB224600F0FF
:102E400097F920F0000431F0004508BF002C59D05C
:102E50004A005215521C01D10B0353D0761EE5D106
:102E600050E051DD354D7D4405F1D2050824F207CF
:102E700044BFD5E90023FEF73DFB76100835641EFC
:102E8000002E01DD002CF2D104460D466A46504664
:102E90005946FEF783F8DDF8008022462B46FEF700
:102EA00029FB424600F064F982468B462AF0000274
:102EB0003BF0004308BF002A26D048004015401CC4
:102EC00001D1090320D0002E1EDD504659466A4626
:102ED000FEF764F8009C624A624BFEF70BFB224649
:102EE00000F046F920F0000431F0004508BF002C46
:102EF00008D04A005215521C01D10B0302D0761E95
:102F0000002EE4DC82468B462AF000023BF00043B0
:102F100008BF002A07D04FEA4B004015401C08BFED
:102F20005FEA0B3106D1AFF300801FB1386840F083
:102F30000100386050465946BDE8FC8DAC3F0000AA
:102F40002DE9F94987B01F001CBF00203860079E9B
:102F50000C46154607A800F0A8F9C21020F008009A
:102F600002F001020128059204952FD10220009061
:102F700001AB07992246304600F028FA040002D13E
:102F8000002000211DE0029800F0F4FA022C18DB6A
:102F90000DF10C08661EDFF8D0B002460B4600208B
:102FA0005946FEF7A7FA044658F8040B0D4600F000
:102FB000E1FA22462B46FEF76DF9761E02460B46D5
:102FC000EDD1049A019C3B46A2182CE002282DD199
:102FD000009001AB07992246304600F0DDFA04006C
:102FE00002D10020002119E0029800F0C3FA022C5F
:102FF00014DB0DF10C08661EDFF870B000225B4692
:10300000FEF778FA044658F8040B0D4600F0B2FAC1
:1030100022462B46FEF73EF9761EEFD1019A00F0CC
:10302000A7F8049A3B46FFF7AFFE0CE0032802D155
:1030300000200F4907E0042807BF4FF0FF306FF072
:10304000004100200021059A0AB181F0004109B039
:10305000BDE8F0890000F03F436FAC642806C80A61
:103060003CBF737FDD4F157565CDCD410000B0418C
:103070000000F07F0023002262E70000C1F30A5342
:1030800040F21E42D31A0CDDCA0283F3070342EA60
:10309000505242F00042DA4002EBE17282EAE17003
:1030A00070476FEAE17203F2E13008B182F000404C
:1030B0007047000041EA030C50EA4C0C52EA0C0C39
:1030C0004FF4001C09D307D01CEB410F9CBF1CEB35
:1030D000430F8B4208BF824270471CEB430FFBD863
:1030E000994208BF9042704741EA030C50EA4C0CE9
:1030F00052EA0C0C4FF4001C09D307D01CEB410F13
:103100009CBF1CEB430F994208BF904270471CEBD9
:10311000410FFBD88B4208BF8242704710F8012B49
:1031200011F8013B0AB19A42F8D0D01A7047A0F1C9
:1031300041011A2938BF20307047000000B500BF98
:10314000130096469446103928BFA0E80C50FAD8D0
:103150005FEA417C28BF0CC048BF40F8042BC90778
:1031600028BF20F8022B48BF00F8012B00BD00004B
:10317000124254D440F2FF7C1CEA11530FD0634535
:1031800031D09B1863453CBF01EB0251704701F001
:10319000004141EA0C510020AFF30080704750EA33
:1031A000410320D001F0004C91EA0C011CD0B1FA8F
:1031B00081F30B3B9A420DD9D21A994051EA0C0186
:1031C000C3F1200C20FA0CFC61449840531C40F2DF
:1031D000FF7CD7E7914041EA0C01C2F1200C20FAB4
:1031E0000CF3194390407047B0FA80F31533202B4D
:1031F000E0D3202AEED3203A203B9A4209D9D21AB2
:1032000000FA03F141EA0C010020531C40F2FF7C5C
:10321000B8E700FA02F141EA0C010020704752427F
:1032200040F2FF7C1CEA11530DD06345DBD0B2EBBA
:10323000030C3CBFA1EB025170470CF1010221EAE3
:10324000035141F4801150EA410CCCD001F0004C04
:10325000352A27DC30B481EA0C01B2F1200309DA07
:10326000C2F12003044601FA03F5D0402843D140BF
:103270009C400CE0C3F12002450020FA03F418BF83
:1032800044F0010421FA03F091400C43002174F151
:10329000004550F1000051EB0C01244230BC7FF49A
:1032A0007BAF70476146002076E7F0B404682346A0
:1032B000002200E05B1C1D78A5F10906052EF9D35C
:1032C000202DF7D02D2D0CBF08222B2D00D15B1CFB
:1032D0001D7845F020066E2E26D15A7842F0200245
:1032E000612A02BF9A7842F020026E2A02D0234659
:1032F000002245E0DB1C1C4604222578282D3FD106
:1033000014F8015FA5F161061A2EF9D3A5F1410762
:103310001A2F24BF303D0A2DF2D325785F2DEFD030
:10332000292D2DD1631C2BE0692E2CD15D7845F021
:1033300020056E2D02BF9D7845F02005662D02D038
:10334000234600221CE013F8034F44F02004692CAC
:1033500002BF5C7844F020046E2C42F003020FD1CF
:103360009C7844F02004692C02BFDC7844F02004EF
:10337000742C05D11C7944F02004792C08BF5B1D06
:10338000F9B10B601DE0302D02BF597841F02001EA
:10339000782914D1991C0C782E2C08BF491C097867
:1033A000A1F16104052C84BFA1F14105052D02D9CD
:1033B00030390A2903D29B1C42F0020201E042F09C
:1033C000010203601046F0BC704700002DE9F04791
:1033D0008CB00027149C04EBC4042D2C8046C8BF7D
:1033E0002D240020186091464FF0000E586001E037
:1033F000491C01200A78302AFAD0002211E018680E
:10340000401C18600878302809D04FF0010E06E003
:10341000A242F4DAA6F130000DF80200521C491C59
:1034200001200E78A6F130050A2DF1D32E2E08BF0B
:10343000491C72B90D78302D0BD11868401E1860E8
:10344000491C0120F6E7302E18BF4FF0010E491C31
:1034500001200E78A6F130050A2D0AD2A242F2DA36
:10346000A6F130000DF80200521C1868401E1860CA
:10347000EDE7BEF1000F8C460DD00DF1FF310D5D73
:103480006D1C0D5507E00DF1FF34A15C49B91968B9
:10349000491C1960521E002AF5DC04BF8DF800702B
:1034A0000122002858D04FF0090E92FBFEFEC2F117
:1034B00009040EEBCE010C44092194FBF1F1002527
:1034C00001EBC101611A18D0012716E053F827104B
:1034D00001EB810106EB410143F827100BE00921C4
:1034E00094FBF1F101EBC1011DF80560611AEDD10A
:1034F0007F1C43F82760641C6D1C9542EFDB9CF831
:10350000001041F02001652926D161461CF8012FE9
:10351000DFF85CE02B2A16BF2D2A1CF8016B2B2646
:103520000022002409E0744504DA04EB840205EB70
:103530004204303C0CF1010C01229CF80050A5F132
:10354000300ABAF10A0FEED32D2E1E6808BF64426E
:10355000A4191C6002B98C46B9F1000F03D000B960
:10356000C446C9F800C038460CB0BDE8F08700BFBB
:1035700000E1F50510F0004160B148BF4042B0FAEB
:1035800080F29040D21CC2F5846241EA025202EB02
:10359000D0214005704700002DE9F14F8CB04FF06D
:1035A000000ADDF85880C3F800A0C8EBC808B8F1DD
:1035B000230FC8BF4FF023089146C3F804A000258D
:1035C00001E0491C012508783028FAD069A201924F
:1035D0005FF000046DA200920DF1080B0E461F462D
:1035E0000EE03868401C386008E0A045F9DB019A1D
:1035F0000099801A085C0BF80400641C761C0125F5
:1036000096F800105BA01622FDF790FC0028ECD184
:1036100030463E4601782E2908BF401C2F46002C1C
:10362000054616D12878302813D13168491E3160FB
:103630006D1C0127F6E7A04509DB019A0099801A65
:10364000085C0BF80400641C3168491E31606D1C75
:10365000012729785FF0160246A0FDF767FC0028D5
:10366000E9D1A04517DA1BF80810072906DD0DF18E
:10367000070111F80820521C01F80820444632685E
:10368000521C326007E00DF10702115D49B9326842
:10369000521C3260641E002CF5DC04BF8DF808A0BB
:1036A000012431688900002F316055D04FF0070C9C
:1036B00094FBFCFCC4F10703CCEBCC0C6344072166
:1036C00093FBF1F10022C1EBC101591A18D04FF060
:1036D000010A15E056F82A100CEB011046F82A00F2
:1036E0000CE0072193FBF1F1C1EBC1011BF802C013
:1036F000591AEFD10AF1010A46F82AC05B1C521C84
:10370000A242EEDB297841F02001702924D129461C
:1037100015F8012F16482B2A16BF2D2A15F8014B34
:103720002B240022002308E0834204DA03EB830207
:103730000CEB4203303B6D1C012295F800C0ACF14C
:10374000300EBEF10A0FEFD32D2C346808BF5B4258
:103750001B19336002B90D46B9F1000F03D007B948
:103760000C9DC9F8005050460DB0BDE8F08F000028
:1037700000E1F5053031323334353637383961629E
:10378000636465664142434445460000000102030C
:103790000405060708090A0B0C0D0E0F0A0B0C0D89
:1037A0000E0F000070B5DDE90445DFF8D464C6E90A
:1037B00006450BE0DFF8CC24C2E90001704770B584
:1037C000DDE90445DFF8B864C6E90845C6E9020149
:1037D000C6E9042370BD00002DE9F84FDFF8A88486
:1037E000404588B040F03682DFF89454DFF89CA45E
:1037F000E979082905F1860405F1800005F18207C1
:103800000FF2C029B0A60FF2C42BEBD8DFE811F0FD
:1038100009008B00A9009900FF00620170017C0182
:103820008F01687837280CD100F043FA29464046CA
:1038300009B00022AA80AA710222BDE8F04F00F070
:1038400019BB2878312809D10120E871022251469C
:1038500000F035FA0D220FF2704162E134280BD1ED
:103860000322214600F02BFA13220FF26C4140464E
:1038700000F0DFFA0320ECE1322805F1880705F5B6
:10388000D67493A6DFF8089418D14B2100F00EFAF5
:1038900002213846FFF760FAD5E90601CDE90401B7
:1038A000DFF8E003D0E90023D5E90401CDE90223E4
:1038B000CDE90001D5E90223494613E0352824D19A
:1038C00000F0F3F902213846FFF746FAD5E9042360
:1038D000D5E90801CDE90023CDE90201D5E90223AC
:1038E00009F14C01204600F067FD2046FDF714FB6E
:1038F000686702463146384600F05EFD00F0D9F9AF
:1039000000F0DBF9022239460BE1332801D03628DA
:1039100009D100F0CEF900F0D0F92046FDF7FCFA0D
:1039200082B22146FDE00220E871504600F006FE1A
:1039300082B205F58E7100F0C2F908220FF2AC31A7
:10394000EFE0204600F0FAFD82B205F5B27100F01A
:10395000B6F90E220FF2A031404600F06AFA0420B8
:1039600077E1CC4C2046FFF731F8A862BBA1FFF706
:10397000DFF96863BAA1A86AFFF7DAF9A863B9A109
:10398000A86AFFF7D5F9E863DFA100F08BF9E864D6
:10399000DFA100F087F92867E86CD5F834C0D0E9DA
:1039A0000623CDE90223E86BD0E90623CDE9002305
:1039B000A86BD0E90623DCE9060100F0C5FDA86A82
:1039C000FEF758FE686BFEF755FEA86BFEF752FE39
:1039D000E86BFEF74FFEE86CFEF74CFE0221504606
:1039E000FFF7BAF900F061F900F063F9286F416957
:1039F000012909D10520E8710222394600F05FF95A
:103A00005FF01202C6A18CE00120287118E1204667
:103A100000F094FD0146DFF880A25046FEF7D9FF82
:103A2000A8625946FFF786F96863314600F03AF913
:103A3000A863494600F036F9E86300BFC1A100F071
:103A400031F92865C3A100F02DF968650020CDE9A2
:103A50000200EA6BAF6BD2E90601CDE90001686BA9
:103A6000D7E90623D0E9060100F06EFD686DD0E9C4
:103A70000623286DD0E9060100F050FE0120687190
:103A8000A86AFEF7F7FD686BFEF7F4FDA86BFEF77A
:103A9000F1FDE86BFEF7EEFD286DFEF7EBFD686DBE
:103AA000FEF7E8FD002020803C215046FFF754F946
:103AB00000F0FFF800F001F90020E8715FF0120259
:103AC000A8A12EE06B6400006B6900006B70000021
:103AD000256400000620E871384600F02FFDA86735
:103AE00082B205F1D40100F0EAF80D22A2A118E09B
:103AF0000721E971022200213980014600F0DFF838
:103B00005FF01A02A0A10CE00821E97100F016FD97
:103B1000E86782B205F18C0100F0D1F85FF0150280
:103B2000A0A1404609B0BDE8F04F00F082B95B4C5F
:103B30002046FEF74BFFE8625946FFF7FBF8286482
:103B40003146E86AFFF7F6F868644946E86AFFF725
:103B5000F1F8A86444A1E86AFFF7ECF8A86543A16E
:103B6000E86AFFF7E5F8E865A86CD0E90623CDE937
:103B70000023686CD0E90623286CD0E9060100F028
:103B800037FE322100F092F800203880444CE86A79
:103B9000FEF770FD286CFEF76DFD686CFEF76AFDA0
:103BA000A86CFEF767FDA86DFEF764FD2046FEF7E2
:103BB0000DFF28632EA1FFF7BDF828662DA1286B05
:103BC000FFF7B8F868662CA1286BFFF7B3F8A86672
:103BD0002AA1286BFFF7AEF8E866D0E90601CDE927
:103BE0000601AA6ED2E90601CDE904016A6ED2E9A6
:103BF0000601CDE902012A6ED2E90601CDE90001F4
:103C0000EA6DA86DD2E90623D0E9060100F0D6FEE0
:103C100001202871A8713C2100F048F8286BFEF7BC
:103C200029FD286EFEF726FDE86DFEF723FD686E80
:103C3000FEF720FDA86EFEF71DFDE86EFEF71AFDEB
:103C400000F03BF85FF00C023AA1404600F0F1F8BA
:103C50000020E87109B0BDE8F08F00006B50000053
:103C60006B4900006B4400006A4E00006B76000058
:103C70006B6800006A447600710000006345000034
:103C8000E003002078060020980100206404002052
:103C9000086E0008FC04002044050020B404002045
:103CA0006C040020A86AFFF745B846212046FFF7BC
:103CB00053B803212846FFF74FB802222946404651
:103CC00000F0D8B87047000053656E642073697ABD
:103CD000652070696400000053656E642073697A22
:103CE000652073696E7573207069640053656E6436
:103CF000207069640000000053656E642073696E73
:103D00007573207069640000616E676C6500000067
:103D10006C6F616453656C656374656400000000DA
:103D200053656E642073697A6520696D6974617486
:103D30006F720000456E64205472616E736D697419
:103D400000000000616D706C697475646553696E84
:103D5000757300006672657175656E637953696E7F
:103D600075730000456E64205472616E736D6974E2
:103D70002073696E7573000053656E6420696D6908
:103D80007461746F7200000053656E642073697A09
:103D90006520696D697461746F7220616476616E0B
:103DA0006365000053656E6420696D697461746FAA
:103DB0007220616476616E636500000038B50400AE
:103DC00001D1012032BD00F017F808B900F018F851
:103DD00000F01BF800F023F8FFE7416100F001F864
:103DE00032BD2068C16841F40051C16000206860A4
:103DF00020216970A970704704F13C05687870470C
:103E0000002129702046FEF727BA24206870206818
:103E1000C16821F40051C160204600F068BA2068F2
:103E2000016921F4904101612068416921F02A0172
:103E3000704710B500F13C035C78202C18D109B113
:103E4000140001D1012010BD1C78012C10D00124D8
:103E50001C7001628284C2840021596021225A7040
:103E600019700068C26842F08002C260002010BD74
:103E7000022010BD38B500F130039C7B202C0FD1FF
:103E800009B1140001D1012032BD1C7B012C07D0E7
:103E900001241C7300251D60BDE8384000F06CB99A
:103EA000022032BD45E8003000287047216801F14A
:103EB000140252E8001F206800F1140321F04001B1
:103EC00043E8001000287047F8B5044626683568B6
:103ED000F768736915F00F0205F0200107F0200064
:103EE00007D1002918BF00285DD02046BDE8F24068
:103EF00092E1DA0702D417F4907F54D0EA0705D58F
:103F0000FE0503D5226C42F0010222646A0705D542
:103F1000DE0703D5226C42F002022264AA0705D50F
:103F2000DE0703D5226C42F0040222642A0706D57C
:103F300008B9DA0703D5236C43F008032364226C25
:103F4000002A2FD000291EBF0028204600F064F967
:103F500020684069216C0A0701D440061DD520461F
:103F600000F031F920684169480611D5FFF79EFF3E
:103F7000FCD1A06B60B10FF295210165A06B00F040
:103F8000C7FD00280ED0A06B016DBDE8F4400847C6
:103F90002046BDE8F24000F0E0BD204600F0DDFD27
:103FA00000202064F1BD206B012804F13D0340F0A6
:103FB0008980E80600D5F90640F18480002200924D
:103FC0003168009122685068009000992068426929
:103FD00050063DD5A16B0868406880B20028E1D04A
:103FE000A28D9042DEDAE085C869B0F5807F29D0E5
:103FF00000F0A5F802F10C0521F4807145E80010ED
:104000000028F5D100F0A2F8490800F11405490094
:1040100045E800100028F5D100F098F800F11405EB
:1040200021F0400145E800100028F5D1202058700B
:104030000021216300F090F800F098F8FAD1A06B0D
:1040400000F02AFDA18DE08D091A89B2204635E0E5
:10405000A08DE18D411AE08D00281CBF88B2002898
:104060006CD02246106800F10C0454E8004F00F1B7
:104070000C0624F4907446E800400028F2D1106841
:1040800000F1140454E8004F640800F114066400C1
:1040900046E800400028F2D1202058700023136326
:1040A000106800F10C0353E8003F00F10C0523F009
:1040B0001003FFF7F7FEF3D189B21046BDE8F440D4
:1040C00000F04CBD28062AD5390628D518782128B5
:1040D00034D1A068B0F5805F04BF2069002808D102
:1040E000206A0188C1F308017160206A811C216285
:1040F00005E0206A411C2162226800785060E08C53
:10410000401EE08480B2C8B92068C16821F08001F7
:10411000C1602068C16841F04001C160F1BD68061E
:104120000CD579060AD5F16821F04001F1602046EE
:1041300020211970BDE8F240FFF7C4BDF1BD216830
:1041400001F10C0050E8001F22687047206800F160
:10415000140151E8001F7047206800F10C0151E87C
:10416000001F00F10C03704702F10C0321F0100155
:1041700043E800100028704781628285C28500F103
:104180003C0100224A6022238B700A700168CB68D0
:1041900043F48073CB6001684A6942F001024A61CE
:1041A0000068C16841F02001C1600020704744E808
:1041B000002100297047016801F10C0252E8002F2C
:1041C00001F10C04704710B5FFF7F5FF22F490726F
:1041D000FFF7EDFFF8D100F00BF8016B012901D1D9
:1041E00000F070F8202180F83E100022026310BD1C
:1041F000016801F1140252E8002F520801F1140481
:10420000520044E800210029F2D17047806B002160
:10421000C185C18400F0A1BC1CB590F83E102229D4
:104220004ED18168826AB1F5805F0AD1016969B9AE
:1042300003685968C1F308011180826A911C816288
:104240000FE0002904BF0169002902D10368596801
:1042500003E00168496801F07F011170816A4A1C1E
:104260008262C18D491EC18589B239BB0168CA68A5
:1042700022F02002CA600168CA6822F48072CA6013
:1042800001684A69520852004A6100F02AF813D1C5
:104290000021016300F016F802681168CB0607D50B
:1042A0000024009412680092036859680091009AF3
:1042B000818D00F053FC01E0FFF78EFA002016BD5F
:1042C000022016BD026802F10C0151E8002F0368BC
:1042D00003F10C0422F0100244E800210029F1D17E
:1042E0007047202180F83E10026B012A704770B59C
:1042F000044622681169E06821F4405101431161CC
:10430000D3682748A168034020690B4361690343D0
:10431000E0690B430343D3605169A06921F4407104
:10432000014351611F498A421CBF1F48824202D18A
:1043300000F0A4FC01E000F099FC62682568E469E3
:104340001921B4F5004FA1FB00016FF0630612D1F3
:10435000D30F5200FDF7A4F900F028F8F60032362A
:104360006420B6FBF0F0420002F4F87202EB011296
:1043700000F0070010E0930F9200FDF791F900F0B4
:1043800015F8360132366420B6FBF0F000F0F0028A
:1043900002EB011200F00F008018A86070BD000051
:1043A000F369FFFF00100140001401406421B0FBDD
:1043B000F1F106FB010670470CB430B583B00A4634
:1043C00006A90291044600250194009502AB01A9BB
:1043D000084878441E30FBF7D7FE019A1570002874
:1043E0004EBF04460198041B204603B030BC5DF864
:1043F0000CFB00BFC3CAFFFF2DE9F84F84B00BB11F
:1044000000241C600446A04601E008F1010898F869
:104410000000A0F10903052BF7D32028F5D02D28A3
:1044200016BF2B2818F8015B2B25002A019103D415
:10443000012A01D0252A03DB002959D00C6057E05E
:10444000002A0CDD102A04BF98F80000302802BFB3
:1044500098F8010040F02000782811D10CE098F87D
:104460000000302818BF0A220AD198F8010040F055
:104470002000782803D1102208F1020800E0082269
:10448000CDF80C8001E008F1010898F80000302810
:10449000F9D0074E7E4418364FF0000906F1280087
:1044A000CDF80880CA468DF8000017460CE000BF22
:1044B000E82900009DF80010401ACA465FFA80FB08
:1044C00007FB09B908F1010898F80010A1F14100B3
:1044D0001A2838BF20313A4606F12800FCF726FD9D
:1044E0000028E7D10399414504D1019800B1046047
:1044F000002020E00299F05DA8EB0101081A0028D5
:1045000010D406DCB9EB0B0103D3B1FBF7F0504537
:1045100008D0AFF30080049808B1012101604FF08A
:10452000FF3903E02D2D08BFC9F10009019808B13A
:10453000C0F80080484605B0BDE8F08FFFE70023D3
:104540000A22002158E700002DE9D043674CC4E956
:104550000201DDE90667DDE90889C4E90667C4E907
:1045600008890020C4E90423C4E90A00C4E90C0056
:10457000C4E91000BDE8D0835C4AC2E90801704775
:1045800070B514461D4600220023FEF793FD584ED9
:104590003CBF584BFCF7AEFFFCF75CFE30600022DE
:1045A0002046554C667800232946FEF783FD534D7F
:1045B00007D2012E05D100F015F800F00EF800200A
:1045C00008E0FEF791FD07D236B900F00BF800F0D5
:1045D00004F801206070207070BD4FF4806128469F
:1045E000FDF7EABF4FF400712846FDF7E5BF2DE95E
:1045F000704F3E4E04460D46D6E9080122462B4632
:10460000FCF706FF3E4A3F4BFEF76EFD80468946AB
:1046100007D83D4A3D4BFEF74DFD3CBF4FF000082B
:10462000C146D6E9020142464B46FCF763FFD6E994
:10463000042382468B460020002100F037FB17D070
:10464000D6E9000142464B46FCF754FFD6E90C235D
:10465000FCF720FE02460B46C6E90C23D6E904010E
:10466000FCF748FF52465B46FCF714FE82468B4639
:10467000D6E906230020002100F018FB17D0D6E968
:10468000100122462B46FCF7C3FED6E90023FCF7B7
:10469000BDFCC6E90E01D6E90623FCF72BFF524606
:1046A0005B46FCF7F7FDC6E9104582468B4650464F
:1046B00059460022164BFEF717FD02D892469B463C
:1046C00009E04FF0FF32134BFEF7F4FC3CBF4FF014
:1046D000000ADFF844B0C6E90AAB42464B465046F2
:1046E0005946BDE8704F4BE7000000005000002025
:1046F000400800400000F0BF04010020000C024010
:104700009A9999999999E9BF9B9999999999E93FAA
:1047100000307F40FF2F7FC000307FC02DE97841FF
:104720002C4E4FF00008C6E90801C6E9028814467D
:104730001D4600202849FCF769FC02460B46002074
:104740002649FCF763FCC6E90401C6E90A45BDE851
:1047500071812DE9704F1F4E2149D6E902454FF076
:10476000005022462B46FCF7C5FE00221D4BFCF7ED
:104770004DFC00F09DFC80468946D6E904012246A6
:104780002B46FCF787FD82468B46D6E90801424658
:104790004B46FCF7AFFE0022134BFCF77BFD0022DB
:1047A0004FF08043FCF7A6FE04460D46504659469E
:1047B00001220E4BFEF798FC9CBF4FF0000AD34637
:1047C000C6E90045C6E902ABC6E906892046294686
:1047D000BDE8708F08060020000059400080764038
:1047E000FF2109400080664000004940007076408B
:1047F00070B5624EC6E90201DDE90445C6E9064529
:104800000020C6E90423C6E90E00C6E9120070BD07
:104810005A4AC2E908017047584AC2E90A0170477A
:1048200070B500220023FEF745FC04460D46544EA9
:1048300005D20020534922462B46FCF75BFEFCF7CD
:1048400009FD5149514C524D306009786078012979
:1048500008BF012805D100F013F800F00CF8002083
:1048600006E0084306D100F00BF800F004F8012040
:104870006070207070BD4FF480512846FDF79CBEDB
:104880004FF400612846FDF797BE2DE9D04F3B4C11
:10489000D4E90801D4E90A23FCF7BAFD3D4A3E4BAE
:1048A000FEF722FC06460F4606D83C4A3C4BFEF774
:1048B00001FC3CBF00260027D4E9020132463B46FA
:1048C000FCF718FED4E904AB8046894600F070F886
:1048D00017D0D4E9000132463B46FCF70BFED4E981
:1048E0000E23FCF7D7FC02460B46C4E90E235046C4
:1048F0005946FCF7FFFD42464B46FCF7CBFC804691
:104900008946D4E906AB00F053F819D0D4E9120176
:10491000D4E90A23FCF77CFDD4E90023FCF776FBFD
:10492000C4E9100152465B46FCF7E4FD42464B46A3
:10493000FCF7B0FC80468946D4E90A01C4E91201BB
:10494000404649460022174BFEF7CEFB02D8904660
:10495000994609E04FF0FF32134BFEF7ABFB3CBF2B
:104960004FF00008DFF84490C4E90C8932463B461A
:1049700040464946BDE8D04F52E700000000002005
:104980003C0800400000F0BF0401002006010020A8
:10499000000C02409A9999999999E9BF9B99999924
:1049A0009999E93F00307F40FF2F7FC000307FC0E2
:1049B0000020002152465B4600F078B92DE9F84FFF
:1049C000DDE90A45DDE90C67DDE90E89DDE910ABBB
:1049D000DFF8C0C0CCE90001CCE90445CCE90667AA
:1049E000CCE90889CCE90AABCCE90223BDE8F18F18
:1049F0002DE9FC47DFF89CA004460D46DDE90A8955
:104A0000DAE9000116461F4642464B46FCF772FDA6
:104A1000CDE900013246DAE902013B46FCF76AFDC6
:104A2000DDE90023FCF736FCCDE900012246DAE996
:104A300004012B46FCF75EFDDDE90023FCF72AFCB0
:104A400004460D46DAE90623DAE90801FCF752FDCF
:104A5000DAE90823FCF74EFD42464B46FCF74AFDD7
:104A600002460B4620462946FCF7D2FC04460D467A
:104A7000DAE90A23DAE90801FCF73CFD32463B4655
:104A8000FCF738FD22462B4602B0BDE8F047FCF7A4
:104A900001BC0000D8050020F8B5044604F1340537
:104AA0006E6A00F007FB07466878022805D080216F
:104AB0002962002028700120F2BD2068016821F0E1
:104AC0001601016000F036F8E868002804BF686944
:104AD000002801D000F03AF800F032F820680168B0
:104AE000CA070CD500F0E6FAC01B0628F6D3202032
:104AF000286203216970002028700320F2BDA86A93
:104B00003F218140B1600020012169702870F2BD11
:104B100090F83510022903D08022426501207047A9
:104B2000052180F8351000680268520852000260C2
:104B3000002070472068416921F080014161704781
:104B400020680168490849000160704720680168D1
:104B500021F00801016070470000704770470000B5
:104B60002DE9F04104000F4654D0494E306800F062
:104B70000700B84202D200F073F84BD12068454DCF
:104B8000810712D5400703D5A96841F4E051A96017
:104B90002078010703D5A86840F46040A860A968A0
:104BA000A06821F0F0010143A9602178C80729D548
:104BB0006068012802D129688A0305E0022818BF2D
:104BC000032803D129688A0103D423E029688A07CE
:104BD00020D5A968890840EA8100A86000F06AFA37
:104BE0008046A868616800F00C00B0EB810F09D026
:104BF00000F060FAA0EB080041F289318842F0D35E
:104C000003202BE0306800F00700874204D200F058
:104C100027F801D0012021E02078410705D5AA68B6
:104C2000E06822F4E0520243AA602178080706D522
:104C3000A968206921F4604141EAC001A96000F03F
:104C40003FFAAA681449154BC2F30312895CC840A5
:104C500018601348006800F063FA0020BDE8F08196
:104C60003770316801F00701B94270470B480D4AAF
:104C7000006813680C49C3F3822206E00748094A1A
:104C8000006813680849C3F34232895CC840704722
:104C9000003C024000380240507000080001002033
:104CA000FC0000200838024070700008904205D1D6
:104CB000994204D041EA030C50EA4C0C70474FF47F
:104CC000001C1CEB410F38BF894270472DE9F04DA5
:104CD00004460D469046DFF84C03DFF84C1322469D
:104CE0002B46FCF707FC0F4627F00041CF4AD04B7C
:104CF000FEF7E0F9064657D2CE4B07F000410B43D2
:104D000000223946FCF7C6FAFEF7B8F95FEA000A56
:104D100047D0FEF72FFC0022C74BFCF7EBFB064603
:104D20000F464FF0A040C54932463B46FCF7E2FB38
:104D300022462B46FCF7AEFA04460D464FF0C04023
:104D4000BF4932463B46FCF7D5FB22462B46FCF7D3
:104D5000A1FA04460D464FF00050BA4932463B4690
:104D6000FCF7C8FB22462B46FCF794FA04460D4696
:104D70000020B54932463B46FCF7BCFB22462B4699
:104D8000FCF788FA04460D464FF00050AF49324612
:104D90003B46FCF7AFFB22462B46FCF77BFA04466A
:104DA0000D460AF0030099E068004015401C08D148
:104DB000290340F032814FF0FF306FF00041BDE831
:104DC000F08D24F0000035F0004108BF002805D127
:104DD000B8F1000F00F022819D4D1FE13046954B48
:104DE00007F00046394600223343FCF753FA0F46DA
:104DF0004900064641EAD0714000002908BF00285A
:104E000017D040F23342A2EB5150352804DB06F0B4
:104E1000000607F000470CE0202803DD2038C740DB
:104E2000874000E001D1002603E00028C4BFC6404F
:104E3000864026F0000037F0004108BF002847D028
:104E400000207D4932463B46FCF754FB82468B46A8
:104E50004FF0A040794952465B46FCF74BFB224697
:104E60002B46FCF717FA04460D464FF0C040744934
:104E700052465B46FCF73EFB22462B46FCF70AFAFD
:104E800004460D464FF000506E4952465B46FCF713
:104E900031FB22462B46FCF7FDF904460D46002067
:104EA000694952465B46FCF725FB22462B46FCF738
:104EB000F1F904460D464FF00050644952465B46F6
:104EC000FCF718FB22462B46FCF7E4F904460D4696
:104ED00030463946FEF7D2F800F0030025F00041D5
:104EE0000029804405D500224FF00043101B63EBDE
:104EF000010100225FF0795304D54FF00047921A68
:104F000067EB0303994208F0010A05DABAF1000FD2
:104F10007BD000244E4D78E022462B462046294681
:104F2000FCF7E8FABAF1000F06460F4631D04948BF
:104F3000494932463B46FCF7DDFA484A484BFCF704
:104F4000A9F932463B46FCF7D5FA464A464BFCF7F0
:104F5000A1F932463B46FCF7CDFA444A444BFCF7F4
:104F600099F932463B46FCF7C5FA424A424BFCF7F8
:104F700091F932463B46FCF7BDFA6FF051023F4BC8
:104F8000FCF788F932463B46FCF7B4FA0022304B76
:104F900037E032463B4620462946FCF7ABFA8246CC
:104FA0008B463748374932463B46FCF7A3FA364A28
:104FB000364BFCF76FF932463B46FCF79BFA344A16
:104FC000344BFCF767F932463B46FCF793FA324A1A
:104FD000324BFCF75FF932463B46FCF78BFA304A1E
:104FE000304BFCF757F932463B46FCF783FA2E4A22
:104FF0002E4BFCF74FF952465B46FCF77BFA2246F4
:105000002B46FCF747F904460D465FEA887004D545
:1050100085F000412046BDE8F08D20462946BDE8D8
:10502000F08D000083C8C96D305FE43F0000A0FF31
:10503000FFFFDF410000E03F0000303EFB21B9C12F
:10504000B41011C026A651BE5C14D3BC9A833BBBDE
:105050000000F03F09260A1039BA213E3BA861C67C
:10506000F97D92BE63AC30909F01FA3EF6FB51167B
:105070006CC156BFB10255555555A53FFFFFDFBF67
:10508000B08F2FC310D8E53D8F0C73A1E1E55ABE58
:105090004DADE44FE31DC73E3EE3B519A0012ABF65
:1050A000FAF010111111813F425555555555C5BFA4
:1050B00000220BE601484068704700BFF400002062
:1050C00030B5144C606800F00C00042802D00828A9
:1050D00002D01DE0104830BD226820680023410244
:1050E00002F03F0204D525680B49C5F3881003E0A0
:1050F00020680A49C0F38810A1FB0001FCF7D0FA30
:105100002168C1F30141491C4900B0FBF1F030BDF9
:10511000024830BD0438024000127A000024F40036
:1051200038B50D4D0D4B2A7804464FF47A71186846
:10513000B1FBF2F2B0FBF2F0FDF730F950B9102CF0
:1051400008D2002221464FF0FF30FDF7FFF8AC6097
:10515000002032BD012032BDF400002000010020FB
:10516000F8B5040025D004F13C05697821B9002088
:1051700028702046FCF77DFF2421697020680268B2
:105180005208520002602068016841F40041016049
:105190002068026822F400420260FFF767FD0146C2
:1051A0006068DFF86C22904205D2DFF868329942DD
:1051B00005D20120F2BDDFF860028142F9D32068F8
:1051C000DFF858324668B1FBF3F3B60943EA8616B6
:1051D00046602668376A6068904206D34FF496703E
:1051E00043434FF47A70B3FBF0F35B1CBF0943EA0F
:1051F00087133362491E2368DE696768974206D2C7
:105200007F0000F043F8042913D2042111E0A068C4
:1052100020B907EB470700F039F805E019204743AC
:1052200000F034F841F4804108050CBF012141F43D
:105230000041DFF8EC0106400E43DE61226813688E
:10524000E169206A23F0C0030B4303431360226823
:10525000DFF8D001936821690340E0680B43034302
:1052600093602168CA68A3696069120A034343EA2C
:105270000222CA602068016841F00101016000203B
:105280006860202169702063A870F2BDB1FBF7F15E
:10529000491CC1F30B0170472DE9F84304460E4643
:1052A00015469946FFF706FF00F0CCF808D1CDF877
:1052B000008019230122DFF87C1100F06EF900282C
:1052C0007DD1387801287AD00121397000F04EF96B
:1052D00021207870102100F08BF82085DFF858012C
:1052E000E062E16A082918BF012904D081421CBF8D
:1052F000206B122801D100F047F9CDF80080002280
:10530000089D2B4600F047F938B120680168CA05AE
:105310004ED54FF4007078604AE02069B0F5804FB8
:1053200008BF06F0FE0610D0F109206801F0060162
:1053300041F0F001016143462A46DFF800112046A2
:1053400000F06FF9002833D1F6B22068DFF8F010D2
:10535000066143462A46204600F063F9002827D11B
:1053600000F076F889690091009A208D002821D0FC
:105370004246294600F025F9A8B900F02DF8401E54
:10538000208521684A69530706D580B220B1606A3A
:1053900002780A6100F016F842462946204600F0DD
:1053A000ADF90028E1D07868042801D100F002F9B5
:1053B000012005E000F0FEF800F022F800E00220F5
:1053C000BDE8F283606A411C6162608D411E6185A7
:1053D000208D411E21857047606A22680178116125
:1053E000606A411C6162608D411E6185208D70473D
:1053F000B970002078606562A4F82A90608D7047CB
:10540000202078700021B9700020387070470000AB
:10541000A186010080841E0000093D0040420F006B
:105420000030FFFF007CFFFF0646884691469A4603
:10543000FFF740BE020010000000FFFF080001005F
:105440000200010004F13C0780467878202870476C
:10545000009021684A69009270472DE9F84F044690
:105460008B46FFF7E3FF04F13C07054678780126F9
:10547000202878D1DFF82C8100951923012241469C
:1054800000F08BF800286ED1387801286BD03E7080
:1054900000F06CF82420787000217960DFF80001BA
:1054A000E06200F071F80095534600F073F838B9E7
:1054B00021680BF0FE000861FFF7FCFD054612E0D5
:1054C00020680168CA0544BF4FF40070786003206B
:1054D0004AE0FFF7EFFD401B824502D3BAF1000F0F
:1054E00001D1A02078702168486949697A7840081C
:1054F000890AA02A00F0010001F0010101D008434F
:10550000E7D02020787021684869810720680ED490
:1055100000F0C2F82268506100951923012241462B
:1055200000F03BF8E8B9761C4E45BAD315E000F020
:105530004BF8002000901923FFF78BFF012200F0A9
:1055400034F8009500F029F8010003D1202078708C
:1055500000223A70080007D003E020207870002174
:105560003970012000E00220BDE8F28F2068026857
:10557000D10703D4026842F001020260206801688A
:1055800021F40061016070472068016841F4807176
:105590000160704700224FF00111204600F019B859
:1055A0000000FFFF020010003A4689690091414661
:1055B000009870472068016841F4007101607047ED
:1055C000414620466FE03068016841F40071016097
:1055D00070472DE9F041069F05460E4690461C4651
:1055E00031022868090E01290CBF406980693040EA
:1055F00080B2B1B288420CBF0120002040450DD1DD
:1056000014F1010FECD0FFF755FDC01B844201D30C
:10561000002CE5D100F064F8012000E00020BDE896
:10562000F081F8B505460E4614461F463102090EB4
:10563000286801291AD14169314089B2B2B2914238
:105640001AD04069410519D5286800F025F82A6864
:105650005061002105F13C002963202242708170D5
:10566000426842F004024260017013E081693140F7
:1056700089B2B2B29142E4D10020F2BD14F1010F1F
:10568000D4D0FFF717FDC01B844201D3002CCDD12D
:1056900000F026F80120F2BD026842F400720260B8
:1056A0006FF48060704770B505460C461646286852
:1056B0004169080612D4284600F03DF808B10120DF
:1056C00070BD14F1010FF2D0FFF7F4FC801B84428F
:1056D00001D3002CEBD100F003F8F0E7002070BDFF
:1056E00000202863202105F13C00002241708270D7
:1056F000416841F0200141600270704770B5054675
:105700000C46164628684169480712D4284600F01E
:1057100012F808B1012070BD14F1010FF2D0FFF7AB
:10572000C9FC801B844201D3002CEBD1FFF7D8FFCA
:10573000F0E7002070BD10B501684A6953050DD52A
:105740006FF480644C61002101633C30202343707E
:105750008170436843F004034360017012F4806079
:1057600018BF0120C0B210BD7CB505460E46DFF85B
:1057700050454FF0FF3301224E212046FFF76DFECA
:105780000028F6D105F0F001314346EA051541F055
:105790000C0241F008018DF805104FF0FF3045F084
:1057A0000C018DF804208DF80610009045F00805D6
:1057B0008DF80750042301AA4E212046FFF76CFD07
:1057C00073BD10B5044604E014F8010B0121FFF786
:1057D000CBFF20780028F7D110BD2DE9F04F8DB018
:1057E00000F096FA00F01EFA142101A8FDF7B4FAB1
:1057F00000200090DFF8CC44DFF8CC04016841F0D1
:1058000080010160026802F080020092002200998B
:105810000092036843F001030360016801F0010195
:10582000009100990092036843F01003036001683F
:1058300001F01001009100990092036843F0080301
:105840000360016801F008010091009900920122B3
:10585000036843F0020303604FF49051006800F0C6
:105860000200009000982046FCF7A2FE00224FF4B0
:1058700040612046FCF79CFE4FF4F051019111224B
:105880000292012103910222049201A92046FCF711
:10589000AFFD09A8002100220023002480E81E009B
:1058A000CDE9001202A81C21FDF756FADFF81C44CE
:1058B000DFF81C0404F5B27553212860002240F281
:1058C000F310E8606960AA602A61AA612846FBF7C4
:1058D00079FF08B100F01AFA4FF48056099609A929
:1058E0002846FCF7B5F908B100F010FA2846FBF796
:1058F000C3FF08B100F00AFA00F07CF9284600F076
:1059000076F908B100F002FA6021002202910392B8
:105910000492069202A908222846FCF730F908B141
:1059200000F0F4F90C2202A92846FCF728F908B186
:1059300000F0ECF92846FCF76AFC00F06BF9DFF8A0
:105940009413216004F13007DFF88C13A1626260C8
:105950000121A2602261227684F82020E262E260C6
:10596000E1613A706161204600F0ECF908B100F0A5
:10597000CDF9002001210090019102906946204656
:1059800000F037FB08B100F0C1F900F037F904F579
:10599000FA78D249C8F8001042F2CF096321C8F85A
:1059A0000820C8F80C10C8F81820C8F80490404621
:1059B000FBF708FF08B100F0A9F900F01BF9404619
:1059C00000F015F908B100F0A1F9C54ABC48C54975
:1059D000426000234FF4804201608360C360026133
:1059E00043618361C3610362FFF7BAFB08B100F052
:1059F0008DF902A800F007F9CDE9001204F1E00BDF
:105A0000B949CBF83C10CBF8442041F28831CBF8AF
:105A10004810CBF84C20CBF8542004F58E7ACBF804
:105A200040905046FBF7CEFE08B100F06FF90296A9
:105A300002A95046FCF70CF908B100F067F900F034
:105A4000D9F8504600F0D3F808B100F05FF904F13E
:105A5000600AA648CAF830004FF4E131CAF83410A1
:105A60000020CAF83800CAF83C00CAF840000C21EF
:105A7000CAF84800CAF84C00CAF8441004F1900073
:105A8000FEF79CF908B100F041F900F0B7F82A657B
:105A90002A66C5F84C9004F5D6709549A96440F281
:105AA000E7316965FBF78EFE08B100F02FF900F0D1
:105AB000A1F804F5D67000F09AF808B100F026F9C4
:105AC000242102A8FDF748F900F098F84FF49660F9
:105AD0008849CAF87410CBF800000121CBF80420E3
